:1000000019C033C032C031C0EFC42FC02EC017C1D9
:1000100052C12BC02AC029C028C027C09CC0D5C04F
:1000200024C023C022C021C020C01FC01EC01DC0CC
:100030001CC01BC011241FBECFEFD2E0DEBFCDBF5E
:1000400011E0A0E0B1E0ECE6FEE002C005900D9208
:10005000A830B107D9F711E0A8E0B1E001C01D92C6
:10006000AF31B107E1F755D600C7CACF0F931F9341
:10007000CF93DF93082FEB01409880ED97E0FC01D0
:100080003197F1F7409AFC013197F1F74098FC0164
:100090003197F1F7FC013197F1F7409A0197F1F7A9
:1000A00010E01CC0812FFE010995482F50E098B147
:1000B000842F809581709E7F892B88B980ED97E091
:1000C000FC013197F1F728B131E0232728B90197D6
:1000D000F1F746955F5F583051F71F5F101711F722
:1000E000409ADF91CF911F910F9108958091140153
:1000F00090E08F7090700895389A27B1217E27B9CB
:1001000028B12F6128B922E0209368002EE12093C6
:100110006C0010926E0014BC23E025BD16BC17BC09
:1001200018BC1092B600109270001092B00024E03B
:100130002093B1001092B2001092B3001092B4005C
:10014000789420EF209314011092170190931601D8
:100150008093150108951F920F920FB60F921124EC
:100160008F939F938091170180FF19C09091140184
:1001700086B1880F880F880F80719F7E892B8093AE
:10018000140180916C00826080936C008091170153
:100190008E7F8093170186B5865087BD0FC08091F2
:1001A0006E008D7F80936E00809114018E7F80930E
:1001B000140180916C00826080936C009F918F91FC
:1001C0000F900FBE0F901F9018951F920F920FB6B1
:1001D0000F9211248F939F938091170181FF19C073
:1001E0009091140186B1880F880F880F80729F7DCF
:1001F000892B8093140180916C00846080936C0043
:10020000809117018D7F8093170186B5865088BD38
:100210000FC080916E008B7F80936E0080911401DF
:100220008D7F8093140180916C00846080936C00BA
:100230009F918F910F900FBE0F901F9018951F9256
:100240000F920FB60F9211248F939F9380911701F5
:1002500082FF1BC09091140186B1880F880F880F10
:1002600080749F7B892B8093140180916C0088603F
:1002700080936C00809117018B7F80931701809190
:10028000B20086508093B3000FC0809170008D7FC4
:1002900080937000809114018B7F80931401809172
:1002A0006C00886080936C009F918F910F900FBEBF
:1002B0000F901F9018951F920F920FB60F92112456
:1002C0008F939F938091170183FF1BC0909114011E
:1002D00086B1880F880F880F80789F77892B80934D
:1002E000140180916C00806180936C0080911701F3
:1002F000877F809317018091B20086508093B4006D
:100300000FC0809170008B7F8093700080911401EA
:10031000877F8093140180916C00806180936C00D2
:100320009F918F910F900FBE0F901F901895109274
:1003300018011092190110921A0108950F931F933A
:10034000382F80911B0190911C01282F80911B0157
:1003500090911C01892F9927682F313069F0313035
:1003600028F0323059F180E090E071C06095607FF4
:1003700020952F70622B69C030E02095309570E099
:1003800080FD02C048E001C040E0C901807190706A
:10039000959587959595879520783070220F232F16
:1003A000221F330B822B6095709568707070759565
:1003B000679575956795862B842B48C080911801A9
:1003C0002091180140911801709118016091190154
:1003D000E0911901A09119010091190160717870E3
:1003E000672B90E08071907074E0959587957A9571
:1003F000E1F7682B30E02078307056E0359527958E
:100400005A95E1F7622B50E041705070440F551F30
:10041000440F551F642BF0E0E078F070F595E795F8
:10042000F595E7956E2BB0E0A170B07096E0AA0F3D
:10043000BB1F9A95E1F76A2B10E00870107084E0FA
:10044000000F111F8A95E1F7602B862F90E01F9116
:100450000F910895942F613009F450C0613020F05D
:10046000623009F0CEC068C0813009F1813030F0CF
:10047000823009F1833009F0C4C024C040911901D1
:10048000292F30E0C90181709070E4E0880F991F36
:10049000EA95E1F7482B40931901809119012071E9
:1004A000307073E0220F331F7A95E1F723C08091FB
:1004B0001801907F03C0809118019F70892B809351
:1004C0001801089540911901292F30E0C901887061
:1004D000907063E0959587956A95E1F7482B409376
:1004E0001901809119012078307054E035952795D5
:1004F0005A95E1F7822B809319010895882321F002
:10050000833009F07EC00CC020911901842F90E047
:100510008C70907043E0880F991F4A95E1F708C0EE
:1005200020911901842F90E083709070880F991F9B
:10053000282B2093190108958130D9F0813030F0B3
:10054000823089F1833009F05CC046C040911A01C5
:10055000292F30E0C90181709070880F991F482BB6
:1005600040931A0180911A0124703070220F331FBA
:100570002FC040911A01892F90E09C01220F232F58
:10058000221F330B3195422B40931A0120911A01FF
:1005900080729070E4E095958795EA95E1F7282BB5
:1005A00020931A01089540911A01292F30E0C901C2
:1005B0008074907074E0959587957A95E1F7482B53
:1005C00040931A0180911A0120713070359527955A
:1005D000822B80931A01089540911A01292F30E04F
:1005E000C9018270907095958795482B40931A01A8
:1005F00080911A012870307035952795822B809351
:100600001A01089515B88FEF84B91BB88AB987B15C
:100610008F7987B988B1806688B910927E0080E2B0
:1006200080937C0086E880937A008AE292E064DD21
:10063000ECE6F0E0808180628083089580628093A0
:100640007C0080917A00806480937A0080917A00A7
:1006500084FFFCCF80917A00806180937A00809142
:10066000790090E0089580911B0190911C01809584
:1006700085B980911B0190911C01892F9927809544
:100680008BB908952F923F924F925F926F927F9213
:100690008F929F92BF92CF92DF92EF92FF920F9331
:1006A0001F93CF93DF93CDB7DEB728970FB6F8949B
:1006B000DEBF0FBECDBF40911B0150911C01609168
:1006C0001B0170911C0119821A8220911A018091DC
:1006D000180190911A018695869586958E71917074
:1006E000892B22952072822B8B832091190150E057
:1006F0004095509580911901220F20728170282B0E
:10070000CA01880F991F8E71282B2C839091190193
:1007100080911901869581709072892BB3E055956F
:100720004795BA95E1F74E71842B8D83809119011D
:10073000672F77276095709520911901269526954A
:10074000217086958072282BCB01880F991F8E719E
:10075000282B2E83909119018091190186958695F9
:1007600086958170969596959072892BE3E07595A4
:100770006795EA95E1F76E71862B8F8380911A0158
:100780009091180120911A01880F880F8072990F9B
:100790009E71892B269526952170822B888753E0A0
:1007A000C52ED12CCC0EDD1EEE24FF241E01089494
:1007B000211C311C6CC0C2010A2E02C09595879580
:1007C0000A94E2F7B3010A2E02C0759567950A9460
:1007D000E2F794010A2E02C0359527950A94E2F7B4
:1007E000562F5170482F4170540F422F4170540FB3
:1007F00095958795482F4170540F959587958170F1
:10080000580FCB0195958795959587958170580FD1
:1008100035952795822F8170580F35952795217032
:10082000520F61FF0BC0552311F480E013C0252F38
:1008300030E02150304086E090E006C0252F30E0C7
:100840002150304084E090E002C0959587952A952C
:10085000E2F7817090E09D012E2B3F2B02C0880FA4
:10086000991F2A95E2F7B82A1196A430B10509F02C
:10087000A2CF020D131DF801B0820894E11CF11CF7
:100880000894C11CD11CF4E0EF16F104E1F0F6016C
:100890008081482E55248181682E77248281882E7C
:1008A00099248E2D8695082F10E0F101E00FF11F9D
:1008B000B080A0E0B0E0F701E170F070EE0FFF1F34
:1008C000EE0FFF1F78CF8A8190E090931C018093F8
:1008D0001B0180911B0190911C01982F88279093F8
:1008E0001C0180931B0120911B0130911C01898107
:1008F00090E0822B932B90931C0180931B0180919D
:100900001B0190911C018095909590931C01809300
:100910001B01A9DE28960FB6F894DEBF0FBECDBF2F
:10092000DF91CF911F910F91FF90EF90DF90CF90CB
:10093000BF909F908F907F906F905F904F903F906F
:100940002F900895EF92FF920F931F93CF93DF9311
:10095000EE24FF24C0E0D0E087E070DE90E08170FC
:1009600090700C2E02C0880F991F0A94E2F7E82AB3
:1009700000EA1FE0C8010197F1F787E05FDE90E031
:10098000817090700C2E02C0880F991F0A94E2F7B4
:10099000F82AC8010197F1F72196C830D105E1F690
:1009A0008F2D90E090931C0180931B0180911B017F
:1009B00090911C01982F882790931C0180931B0114
:1009C00020911B0130911C018E2D90E0822B932BE6
:1009D00090931C0180931B0146DEDF91CF911F9104
:1009E0000F91FF90EF9008951F920F920FB60F9204
:1009F0001124AF92BF92CF92DF92FF920F931F9379
:100A00002F933F934F935F936F937F938F939F9316
:100A1000AF93BF93CF93DF93EF93FF938091080140
:100A2000882309F03FC080916C0085FF36C035995E
:100A300034C085EA95EA90931C0180931B0113DE74
:100A400080910901813019F020E030E00AC0109255
:100A5000090113BE44C180E29EE40197F1F72F5FC4
:100A60003F4F359B04C0283C3105A8F003C0293C0A
:100A7000310589F78FEF9FEF90931C0180931B0145
:100A8000F2DD359BFECF80E29EE40197F1F781E035
:100A90008093090124C156DF22C180910901813070
:100AA00009F41DC150916C0090916C0040911401AB
:100AB00026B16091140186B1309114018695832B83
:100AC00080958F704295407F220F220F220F26279C
:100AD0004223842B990F990F990F907F56955F7041
:100AE000952B892303E010E0A82EBB2482958F70FC
:100AF000C82EDD24F02EC501002E02C095958795E5
:100B00000A94E2F780FF59C08091140121E030E09F
:100B1000002E02C0220F331F0A94E2F7822B80932B
:100B20001401F801E25FFE4F8EEF808340916C006C
:100B300082E090E0002E02C0880F991F0A94E2F72D
:100B40008095842380936C0080911701282B20933B
:100B5000170181E00817A1F080171CF0002349F06D
:100B6000B7C082E00817A9F083E0081709F0B0C009
:100B700019C086B5885387BD80916E00826006C01B
:100B800086B5885388BD80916E00846080936E0026
:100B90009FC08091B20088538093B3008091700011
:100BA000826008C08091B20088538093B400809125
:100BB00070008460809370008BC0C601002E02C05C
:100BC000959587950A94E2F780FF82C0D801A25FCD
:100BD000BE4F8C9187FD39C0E801C65FDE4F68814A
:100BE0004C9186B15C91477021E030E002C0220F49
:100BF000331F4A95E2F720952623869590E0002E34
:100C000002C0959587950A94E2F7817090705770AD
:100C100002C0880F991F5A95E2F7282B28838C91E0
:100C20008770873091F4E0911501F09116014881A9
:100C30006C91772767FD70956F77707083E075957D
:100C400067958A95E1F7802F0995F801E25FFE4FDD
:100C500080818F5F808320916C0082E090E0002E85
:100C600002C0880F991F0A94E2F78095822380932F
:100C70006C002091170181E090E0002E02C0880FE7
:100C8000991F0A94E2F7282B2093170181E0F816A8
:100C900081F08F151CF0FF2041F01AC082E0F81699
:100CA00061F083E0F816A1F40EC086B5885387BDC5
:100CB0000FC086B5885388BD0BC08091B2008853A1
:100CC0008093B30005C08091B20088538093B40034
:100CD000015010408FEF0F3F180709F00BCFFF9125
:100CE000EF91DF91CF91BF91AF919F918F917F91C4
:100CF0006F915F914F913F912F911F910F91FF90B5
:100D0000DF90CF90BF90AF900F900FBE0F901F90CD
:100D10001895EF92FF920F931F93CF93DF9372DC9E
:100D2000359903C081E0809308010CDE80910801B1
:100D3000882329F080E49CE9A0E0B0E019C080E6B7
:100D40009AEEA0E0B0E014C08FEF9FEF90931C01EB
:100D500080931B0188DC85E083BF889528EE33E013
:100D600088EC90E00197F1F721503040C9F70AC0B4
:100D70008093030190930401A0930501B0930601B1
:100D8000CEE9D1E0809109018130F1F210920901A0
:100D900013BE109218011092190110921A01E090DE
:100DA0000301F0900401009105011091060120E07B
:100DB00030E040E050E00BC08091140190E08F7073
:100DC0009070882349F42F5F3F4F4F4F5F4F2E1590
:100DD0003F054007510781F7BE0183E047D9809165
:100DE000140190E08F7090708823C9F780911B01E7
:100DF00090911C0190931E0180931D0143DC809112
:100E00000801882309F0BECF80911B0190911C013D
:100E10008F5F9F4F31F4809112018F5F8093120199
:100E200002C01092120120911B0130911C0180918F
:100E30001D0190911E012817390731F4809113018B
:100E40008F5F8093130102C01092130180911201F1
:100E5000893129F080911301823309F093CF1092E8
:0C0E60001201109213016EDD8DCFFFCF48
:080E6C00000604409C00000098
:00000001FF
